:100000000C9409010C9431010C9431010C94E80515
:100010000C94E8050C94E8050C9431010C94310122
:100020000C9431010C9431010C9431010C94310188
:100030000C9431010C9431010C9431010C94310178
:100040000C949E050C9431010C949D040C9477043F
:100050000C9431010C9431010C9431010C94310158
:100060000C9431010C9431019F0EB10EB40EBB0EF5
:10007000C20EF00EF70E040F110F1D0F1D0F1D0FF6
:100080001D0F1D0F1D0F1D0F1D0F1D0F1D0F1D0F10
:100090001D0F1D0F1D0F1D0F1D0F1D0F1D0F1D0F00
:1000A0001D0F1D0F1D0F1D0F9F0EAC0EB10EB40EB8
:1000B000BB0EC20EC90ED60EE30E00407A10F35AE4
:1000C00000A0724E18090010A5D4E80000E8764898
:1000D000170000E40B54020000CA9A3B000000E144
:1000E000F505000080969800000040420F000000D7
:1000F000A08601000000102700000000E8030000B7
:1001000000006400000000000A0000000000010080
:10011000000000002C76D888DC674F0823DFC1DFA1
:10012000AE59E1B1B796E5E3E453C63AE6519976A4
:1001300096E8E6C28426EB898C9B62ED407C6FFCDE
:10014000EFBC9C9F40F2BAA56FA5F490055A2AF720
:100150005C936B6CF9676DC11BFCE0E40D47FEF529
:1001600020E6B500D0ED902E030094357705008091
:10017000841E080000204E0A000000C80C333333F0
:10018000330F986E12831141EF8D2114893BE65590
:1001900016CFFEE6DB18D1844B381BF77C1D901D73
:1001A000A4BBE424203284725E228100C9F124ECD5
:1001B000A1E53D2700000000240027002A000000E0
:1001C0000008000201000003040700000000000016
:1001D00000000000000023002600290000000000AD
:1001E000250028002B000404040404040404020273
:1001F00002020202030303030303010204081020A6
:100200004080010204081020010204081020D510CB
:10021000AD1011241FBECFEFD8E0DEBFCDBF26E06A
:10022000A0E1B4E001C01D92A73AB207E1F714E0E3
:10023000A0E0B1E0ECEDF2E302C005900D92A03138
:10024000B107D9F711E0C8E0D1E004C02197FE0161
:100250000E941117C730D107C9F70E94AC090C944E
:1002600061190C9400000895CF92DF92EF92FF92F3
:100270000F931F93CF93DF936C017A018B01C0E042
:10028000D0E0CE15DF0581F0D8016D918D01D6014A
:10029000ED91FC910190F081E02DC6010995892B2B
:1002A00011F02196EECF7E01C701DF91CF911F9112
:1002B0000F91FF90EF90DF90CF900895FC01538D48
:1002C000448D252F30E0842F90E0821B930B541730
:1002D00010F0CF96089501970895FC01918D828DBD
:1002E000981761F0828DDF01A80FB11D5D968C918A
:1002F000928D9F5F9F73928F90E008958FEF9FEF95
:100300000895FC01918D828D981731F0828DE80F50
:10031000F11D858D90E008958FEF9FEF0895FC010A
:10032000918D228D892F90E0805C9F4F821B9109D7
:100330008F739927089588E295E00E948F0121E04C
:10034000892B09F420E0822F0895FC01848DDF01C0
:10035000A80FB11DA35ABF4F2C91848D90E0019638
:100360008F739927848FA689B7892C93A089B18927
:100370008C91837080648C93938D848D981306C0C8
:100380000288F389E02D80818F7D80830895EF922C
:10039000FF920F931F93CF93DF93EC0181E0888F3F
:1003A0009B8D8C8D981305C0E889F989808185FD26
:1003B00026C0F62E0B8D10E00F5F1F4F0F73112715
:1003C000E02E8C8DE8120CC00FB607FCFACFE8893E
:1003D000F989808185FFF5CFCE010E94A501F1CF7B
:1003E0008B8DFE01E80FF11DE35AFF4FF0829FB79E
:1003F000F8940B8FEA89FB89808180620AC09FB7DD
:10040000F894EE89FF896083E889F9898081837097
:10041000806480839FBF81E090E0DF91CF911F9146
:100420000F91FF90EF900895CF93DF93EC01888DAB
:100430008823C9F0EA89FB89808185FD05C0A889E8
:10044000B9898C9186FD0FC00FB607FCF5CF80816E
:1004500085FFF2CFA889B9898C9185FFEDCFCE01B8
:100460000E94A501E7CFDF91CF91089580E090E051
:10047000892B29F00E949B0181110C9400000895A2
:100480003FB7F8948091240590912505A091260509
:10049000B091270526B5A89B05C02F3F19F00196FE
:1004A000A11DB11D3FBFBA2FA92F982F8827820FFA
:1004B000911DA11DB11DBC01CD0142E0660F771F4A
:1004C000881F991F4A95D1F7089520911204309101
:1004D00013042817390771F49091100480911104C6
:1004E000981741F0E0911004F0E0E152FB4F808159
:1004F00090E008958FEF9FEF089508951F93CF9395
:10050000DF93DC015C968D919C915D97009739F4A7
:1005100021E030E013963C932E9312973BC0519606
:10052000ED91FC91529750962C915097322F309527
:100530001FB75E964C915E97742F727041FD609567
:10054000F8944081772311F0422B01C0432340836C
:10055000EC012197F1F748E0508160FF02C0522B77
:1005600001C053235083EC012197F1F76695415068
:1005700099F78081772319F08323808302C0282B89
:1005800020831FBF5C968D919C915D970197F1F739
:1005900081E090E0DF91CF911F91089520911204A6
:1005A000309113042817390771F4809111042091B8
:1005B000100490E0805C9F4F821B910960E470E022
:1005C0000E94DB16089580E090E0089520911204C7
:1005D0003091130428173907B9F4909110048091D1
:1005E0001104981789F0E0911004F0E0E152FB4FFC
:1005F00080812091100430E02F5F3F4F2F7333270D
:100600002093100490E008958FEF9FEF089580E00D
:1006100090E008950E941A190F931F93CF93DF93D0
:10062000EC0188819981009729F02A813B81261766
:10063000370788F48B016F5F7F4F0E945418009733
:1006400061F0998388831B830A832C813D81232B4E
:1006500011F4FC01108281E001C080E0DF91CF91B4
:100660001F910F910895FC0124813581FB01448184
:1006700055812417350721F5FC0180819181FB010B
:1006800060817181009719F061157105A1F4611500
:10069000710549F0232BB1F0FB01808190E0919529
:1006A000819591090AC0009769F0232B59F0FC014C
:1006B000808190E002C00E94281921E0892B19F066
:1006C00020E001C021E0822F0895EF92FF920F9366
:1006D0001F93CF93DF936115710511F480E01CC067
:1006E00041155105C1F07B01EC018C819D818A018E
:1006F000080F191FB801CE010E940C03882371F363
:10070000288139818C819D81B701820F931F0E94BE
:1007100031191D830C8381E0DF91CF911F910F91DF
:10072000FF90EF9008950F931F93CF93DF938C0169
:10073000EB01FC0180819181009739F0688179811A
:1007400061157105A1F40E94CB1788819981F80188
:10075000918380838A819B81938382838C819D8115
:1007600095838483198218821B821A820FC0F80134
:10077000428153812C813D814217530720F30E940F
:1007800031198C819D81F801958384831D821C829F
:10079000DF91CF911F910F910895CF93DF93EC01DB
:1007A00088819981009711F00E94CB1719821882D5
:1007B0001D821C821B821A82DF91CF910895EF92D5
:1007C000FF920F931F93CF93DF93EC017B018A017C
:1007D000BA010E940C03811104C0CE010E94CD0316
:1007E00007C01D830C83B701888199810E9431194C
:1007F000CE01DF91CF911F910F91FF90EF9008955F
:10080000CF93DF93EC016115710559F0FB01019065
:100810000020E9F73197AF01461B570B0E94DF0319
:1008200002C00E94CD03CE01DF91CF910895FC015B
:10083000808191810C94CB17FC011182108213826C
:100840001282158214826115710551F0FB0101902D
:100850000020E9F73197AF01461B570B0C94DF03DB
:1008600008956115710579F0FB0101900020E9F709
:100870003197AF01461B570BDC01ED91FC910280D3
:10088000F381E02D099480E090E008950F931F9389
:10089000CF93DF93EC010E9431048C0163E072E09E
:1008A000CE010E943104800F911FDF91CF911F91E3
:1008B0000F9108950F931F93CF93DF93EC01FB01EA
:1008C0004481558160817181E881F9810280F381E1
:1008D000E02D09958C0163E072E0CE010E943104A5
:1008E000800F911FDF91CF911F910F9108951F925B
:1008F0000F920FB60F9211242F933F934F935F9354
:100900006F937F938F939F93AF93BF93EF93FF93D7
:1009100088E295E00E94A501FF91EF91BF91AF9110
:100920009F918F917F916F915F914F913F912F9107
:100930000F900FBE0F901F9018951F920F920FB639
:100940000F9211242F938F939F93EF93FF93E09136
:100950003805F09139058081E0913E05F0913F0521
:1009600082FD12C09081809141058F5F8F7320912D
:100970004205821751F0E0914105F0E0E85DFA4F41
:10098000958F8093410501C08081FF91EF919F91E8
:100990008F912F910F900FBE0F901F90189590E0A0
:1009A000FC01E254FE4F2491FC01E650FE4F3491CD
:1009B000FC01EA51FE4FE491EE2309F43CC02223EE
:1009C00039F1233091F038F42130A9F0223001F5CB
:1009D00084B58F7D12C0273091F02830A1F02430EB
:1009E000B9F4809180008F7D03C0809180008F7763
:1009F000809380000DC084B58F7784BD09C080913D
:100A0000B0008F7703C08091B0008F7D8093B000DD
:100A1000F0E0EE0FFF1FE452FE4FA591B4919FB797
:100A2000F894611104C08C913095382302C0EC9188
:100A30003E2B3C939FBF0895CF93DF9390E0FC0142
:100A4000E650FE4F2491FC01EA51FE4F8491882329
:100A500061F190E0880F991FFC01EC54FE4FC591A5
:100A6000D491FC01E452FE4FA591B491611109C0EB
:100A70009FB7F8948881209582238883EC912E2358
:100A80000BC0623061F49FB7F8948881322F3095A3
:100A900083238883EC912E2B2C939FBF06C08FB7A6
:100AA000F894E8812E2B28838FBFDF91CF91089592
:100AB0008F929F92AF92BF92CF92DF92EF92FF926E
:100AC0006B017C010E9440024B015C01C114D10406
:100AD000E104F104F1F00E944002DC01CB0188192D
:100AE0009909AA09BB09883E9340A105B10570F395
:100AF00021E0C21AD108E108F10888EE880E83E0EF
:100B0000981EA11CB11CC114D104E104F10419F711
:100B1000DDCFFF90EF90DF90CF90BF90AF909F9090
:100B20008F9008952FB7F89460912005709121055A
:100B300080912205909123052FBF08951F920F9257
:100B40000FB60F9211242F933F938F939F93AF93E0
:100B5000BF938091200590912105A0912205B0912D
:100B6000230530911F0523E0230F2D3720F4019634
:100B7000A11DB11D05C026E8230F0296A11DB11DC0
:100B800020931F058093200590932105A0932205B3
:100B9000B09323058091240590912505A091260509
:100BA000B09127050196A11DB11D80932405909356
:100BB0002505A0932605B0932705BF91AF919F917E
:100BC0008F913F912F910F900FBE0F901F9018950E
:100BD0001F920F920FB60F9211242F933F934F93B2
:100BE0005F936F937F938F939F93AF93BF93EF9395
:100BF000FF93E0911204F0911304309709F451C06F
:100C0000968DA685B785858591FF04C09C91892323
:100C100029F447C09C91892309F043C0A389B48972
:100C20009C918589809589238C93868997890197E2
:100C3000F1F7608D718DA685B785558538E020E088
:100C4000CB010197F1F7822F90E095958795282F9A
:100C50004C91452309F02068315091F7868D81FD34
:100C600020958091110490E001968F73992730911F
:100C70001004381749F0A0911104B0E0A152BB4F05
:100C80002C938093110403C0868D8160868F828DA2
:100C9000938D0197F1F7A389B4899C918589892B5C
:100CA0008C93FF91EF91BF91AF919F918F917F9125
:100CB0006F915F914F913F912F910F900FBE0F90C9
:100CC0001F901895CF93DF93EC018A859B85AC85A7
:100CD000BD858E839F83A887B9870E9492056A830A
:100CE0007B838C839D8381E089838883DF91CF918F
:100CF0000895CF93DF93EC018E819F81A885B985FC
:100D00008A839B83AC83BD830E9492056A877B871D
:100D10008C879D8781E089838883DF91CF910895B7
:100D20002F923F924F925F926F927F928F929F92FB
:100D3000AF92BF92CF92DF92EF92FF920F931F93E9
:100D4000CF93DF93D82FC92F8B010E94781224E60E
:100D500030E040E050E00E94EF1649015A019B014B
:100D6000AC0160E876E988E990E00E94CB166B015F
:100D70007C01F80191828082ED2FFC2F2191822F3E
:100D8000022E000C990BC0970A97C0F32E3239F54A
:100D90001F0180E8882E86E9982E88E9A82EB12CBC
:100DA0009AE0492E512C612C712CF101C1911F0147
:100DB0000C2E000CDD0BE097CA30D10580F4C50184
:100DC000B401A30192010E94EF1649015A01DE010C
:100DD0000E941717C60ED71EE81EF91EE6CFA5E023
:100DE000B0E0A70196010E949B156F5F7F4F8F4F68
:100DF0009F4F23E030E040E050E00E94EF16F80102
:100E000022833383448355831682DF91CF911F91D0
:100E10000F91FF90EF90DF90CF90BF90AF909F9099
:100E20008F907F906F905F904F903F902F9008959C
:100E3000FF920F931F93CF93DF93EC01F8802DE285
:100E4000F21201C02196CE010E9478129B01AC01E2
:100E5000A4E6B0E00E949B15FE014991242F042EC8
:100E6000000C330B205331092A303105A8F34E32E0
:100E700041F52181022E000C330B205331092A3019
:100E80003105F8F44AE0429F8001439F100D112480
:100E9000012E000C220B330B600F711F821F931F5A
:100EA0000281002E000C110B005311090A301105AC
:100EB00040F4012E000C220B330B600F711F821FB8
:100EC000931F2DE2F21207C0909580957095619561
:100ED0007F4F8F4F9F4FDF91CF911F910F91FF90C9
:100EE00008950F931F93CF93DF93CDB7DEB72E975F
:100EF0000FB6F894DEBF0FBECDBF14E684E896E0CF
:100F00000E94CE02181619060CF0EDC084E896E097
:100F10000E94E602082F8093DE0489831A8241E052
:100F200050E0BE016F5F7F4F81ED95E00E94650349
:100F30000A3021F761EB73E088E295E00E9431040A
:100F400061ED75E088E295E00E945A046AE774E07A
:100F500081ED95E00E94910866EB73E08AE794E0EA
:100F60000E944719892B09F43FC065E072E081EDCA
:100F700095E00E940004EAE7F4E0DF01812F1D9272
:100F80008A95E9F7809114048F5F809314046CEBC9
:100F900073E088E295E00E9431046091140470E0EF
:100FA00080E090E04AE00E94B20863E072E088E2EC
:100FB00095E00E94310469EC73E084E896E00E94B9
:100FC000460464E670E080E090E00E94580561ED20
:100FD00073E084E896E00E94460464E670E080E0F6
:100FE00090E00E9458058ACF65ED73E08AE794E0AF
:100FF0000E944719892B09F468C08091C905909116
:10100000CA050C9708F061C066E174E081ED95E0D7
:101010000E94910865E072E0CE0101960E941C04D6
:10102000809116048823B1F186E194E09E878D8734
:1010300000E0AE01435F5F4F65EE73E08D859E85F6
:101040000E949F12009749F00F5F063091F7BC0194
:10105000CE0101960E940004ECCF8D819E81892BE8
:1010600099F0E981FA818081882371F018861F82C6
:101070001A8619861C861B86BE016F5F7F4FCE01C4
:1010800007960E94930306C067EE73E0CE010796B1
:101090000E941C04CE0101960E941704BE01695FE4
:1010A0007F4F8BEC95E00E949303CE0107960E9440
:1010B00017046AEF73E088E295E00E9431046BEC5C
:1010C00075E088E295E00E945A0467EC73E081EDD8
:1010D00095E00E940004EAE7F4E0DF01812F1D9211
:1010E0008A95E9F70BCF2E960FB6F894DEBF0FBEA8
:1010F000CDBFDF91CF911F910F910895CF93DF93D3
:10110000EC01FB0144815581608171810E9465037E
:10111000811103C0CE010E94CD03CE01DF91CF919A
:1011200008950F931F93CF93DF93FC01C481D58162
:10113000209719F4FB01108210C0C336D10510F0BE
:10114000C3E6D0E08B01FC0160817181AE01C80172
:101150000E943819C00FD11F1882DF91CF911F91C3
:101160000F9108958F929F92AF92BF920F931F930A
:10117000CF93DF93CDB7DEB7A1970FB6F894DEBF5C
:101180000FBECDBF19A2423008F44AE08E010F5DB8
:101190001F4F842E912CA12CB12CA50194010E94EB
:1011A000EF16E62FB901CA0101501109EA3014F413
:1011B000E05D01C0E95CD801EC93232B242B252BA7
:1011C00061F7B80188E295E00E943104A1960FB65C
:1011D000F894DEBF0FBECDBFDF91CF911F910F916D
:1011E000BF90AF909F908F9008958F929F92AF92F3
:1011F000BF92CF92DF92EF92FF920F931F93CF9304
:10120000DF93CDB7DEB7C257D1090FB6F894DEBF72
:101210000FBECDBF8C016B01A42E65E072E0CE0144
:1012200085599F4F0E941C0465E072E0CE018B59E6
:101230009F4F0E941C04B80184E896E00E945A0463
:10124000B80188E295E00E945A040E949205B12CF0
:101250000D2C000CEE08FF08C60ED71EE81EF91E66
:101260008E010F5F1F4F84E6882E0E9492056C1539
:101270007D058E059F0508F047C084E896E00E9432
:10128000CE02892B91F384E896E00E94E602982E24
:10129000E2968FAFE297E3961FAEE39741E050E00E
:1012A000BE016F587F4FCE018B599F4F0E9465033F
:1012B0008AE09812E2CFB801CE018B599F4F0E946D
:1012C00091086DE074E0C8010E94471965E072E082
:1012D000892B79F0CE018B599F4F0E9400046DE05D
:1012E00074E0CE0185599F4F0E940004BB24B39443
:1012F000C4CFCE018B599F4F0E940004F801882D66
:1013000011928A95E9F7B9CFAA2039F0BE01655943
:101310007F4F88E295E00E945A04CE018B599F4F7F
:101320000E941704CE0185599F4F0E9417048B2DF0
:10133000CE58DF4F0FB6F894DEBF0FBECDBFDF91A2
:10134000CF911F910F91FF90EF90DF90CF90BF90C2
:10135000AF909F908F900895CF93DF93CDB7DEB776
:10136000E9970FB6F894DEBF0FBECDBF789484B571
:10137000826084BD84B5816084BD85B5826085BD91
:1013800085B5816085BD80916E00816080936E001F
:101390001092810080918100826080938100809111
:1013A00081008160809381008091800081608093C2
:1013B00080008091B10084608093B1008091B00082
:1013C00081608093B00080917A00846080937A007D
:1013D00080917A00826080937A0080917A008160A7
:1013E00080937A0080917A00806880937A001092CE
:1013F000C10060E085E00E941C0561E083E00E947E
:101400001C0561E086E00E941C0561E084E00E940A
:101410001C0561E087E00E941C0561E082E00E94FB
:101420001C0560E27EE480E090E00E945805E091B7
:101430003805F091390582E08083E0913405F09120
:1014400035051082E0913605F09137058FEC8083E9
:1014500010924005E0913C05F0913D0586E08083C7
:10146000E0913A05F0913B05808180618083E091B5
:101470003A05F0913B05808188608083E0913A05D0
:10148000F0913B05808180688083E0913A05F0917E
:101490003B0580818F7D808310929F0610929E066F
:1014A00010929D0610929C0610929B0610929A062E
:1014B0008DE991E09093A1068093A006909190060B
:1014C000963108F058C02DEB30E030939B06209306
:1014D0009A062BE931E030939D0620939C062CE27E
:1014E00031E030939F0620939E064091680098302B
:1014F00058F031E09E3008F430E021E0822F01C046
:10150000880F3A95EAF701C084E0842B8093680045
:10151000983038F09E3040F0963148F020E030E0CE
:1015200008C02DE630E005C02BE630E002C02CE616
:1015300030E03093980620939706983030F481E09D
:1015400001C0880F9A95EAF70EC0292F30E09E302F
:1015500018F42850310902C02E50310981E001C031
:10156000880F2A95EAF7809399068091A0069091BA
:10157000A1060197F1F780919E0690919F06892B15
:1015800049F1E0911204F091130426E0E438F207E7
:1015900009F1309739F0A389B4899C9185898095A8
:1015A00089238C938091A2068E7F8093A20610924D
:1015B00011041092100484E896E090931304809331
:1015C0001204E0919706F091980690818091990617
:1015D000892B80836AE271E088E295E00E944604EC
:1015E00060E083E00E94CF0461E082E00E94CF04CB
:1015F00068EB7BE080E090E00E94580560E082E0CC
:101600000E94CF0460ED77E080E090E00E945805F2
:1016100061E671E088E295E00E94460462E771E0CD
:10162000CE0101960E941C0440E068E873E1CE01FF
:1016300001960E94F508182FCE0101960E9417040A
:10164000111115C065E771E088E295E00E9446043B
:1016500061E082E00E94CF0468EB7BE080E090E0F4
:101660000E94580560E082E00E94CF04D7CF68E96D
:1016700071E088E295E00E94460468EB71E088E240
:1016800095E00E94460460ED77E080E090E00E94E3
:101690005805772473945524539482E0E82EFF2450
:1016A000F3946E018EE2C80ED11C65EC75E08BECF4
:1016B00095E00E943303811125C085EC95E0E5E0BB
:1016C0008B3C9E0791F06091CB057091CC05611524
:1016D000710539F04091CF055091D0050E94DF038C
:1016E00004C085EC95E00E94CD0362ED71E088E2D4
:1016F00095E00E94310465EC75E088E295E00E9477
:101700005A046DC0109114046BEC75E085EC95E003
:1017100010FF0AC00E943303882309F42DC1809171
:101720001504811129C15EC00E943303882309F486
:1017300023C1112309F420C16FE072E0CE010196AC
:101740000E941C0441E060ED77E0CE0101960E940A
:10175000F508CE0101960E94170468E172E088E264
:1017600095E00E94460460E084E00E94CF046BE5AF
:1017700073E088E295E00E9446046AE773E0CE01D8
:1017800001960E941C0441E060ED77E0CE010196D5
:101790000E94F508CE0101960E94170466E873E0E6
:1017A000CE0101960E941C0441E060ED77E0CE017D
:1017B00001960E94F508CE0101960E94170410922E
:1017C000150461E973E088E295E00E94460468EB45
:1017D0007BE080E090E00E945805109214040E9483
:1017E000360263CF63EC72E088E295E00E94460423
:1017F00068EB7BE080E090E00E94580565EE72E0C7
:10180000CE0101960E941C0441E060ED77E0CE011C
:1018100001960E94F508CE0101960E94170464E625
:1018200070E080E090E00E9458056EEE72E0CE011C
:1018300001960E941C0441E060EA7FE0CE0101961F
:101840000E94F508CE0101960E94170464E670E03C
:1018500080E090E00E94580569EF72E0CE010196A9
:101860000E941C0441E060ED77E0CE0101960E94E9
:10187000F508CE0101960E94170464E670E080E04E
:1018800090E00E94580563E173E0CE0101960E944A
:101890001C0441E068EB7BE0CE0101960E94F50854
:1018A000CE0101960E94170464E670E080E090E0AB
:1018B0000E94580560E273E0CE0101960E941C046C
:1018C00041E068E873E1CE0101960E94F508182F07
:1018D000CE0101960E941704112309F444C06FEE53
:1018E00071E088E295E00E9431044AE061E070E036
:1018F00080E090E00E94B20863E072E088E295E048
:101900000E9431045092150466E072E0CE01019607
:101910000E941C0441E060ED77E0CE0101960E9438
:10192000F508182FCE0101960E941704111118C056
:101930006FE072E0CE0101960E941C0441E060ED70
:1019400077E0CE0101960E94F508CE0101960E9433
:10195000170468E172E088E295E00E944604D4CF63
:1019600060E372E004C01092150466E473E088E25C
:1019700095E00E94460433CF80911504882309F432
:10198000CBC365E072E0CE01C4960E941C0461E006
:1019900083E00E94CF040E9492054B015C01F0E4B9
:1019A0008F0EFFE19F1EA11CB11C0E9492056815BD
:1019B00079058A059B0508F0B4C284E896E00E9488
:1019C000CE02892B09F499C284E896E00E94E602CF
:1019D000682E8091740690917506A0917606B0915C
:1019E00077060196A11DB11D80937406909375062C
:1019F000A0937606B093770624E2621609F45CC2DF
:101A0000E0916E0626153CF08AE0681679F09DE0BC
:101A100069125FC20BC0FAE26F1641F02CE262124B
:101A200058C280915B06862580935B06EF3008F0F4
:101A300035C2F0E0E35AF94F108280915C068823AA
:101A400009F41CC120915D063FEB320F822F022E5C
:101A5000000C990B363010F4C79707C0215626307A
:101A600018F48755910901C0C097282F2295207F2F
:101A700030915E064FEB430F832F032E000C990B22
:101A8000463010F4C79707C03156363018F48755E2
:101A9000910901C0C097820F90915B068913DAC04B
:101AA0008091800690918106A0918206B091830674
:101AB0000196A11DB11D8093800690938106A0938D
:101AC0008206B093830680916F06882399F08091F7
:101AD000780690917906A0917A06B0917B060196DE
:101AE000A11DB11D8093780690937906A0937A0684
:101AF000B0937B0610916C061123B9F1113009F0F7
:101B000082C089EF95E00E94790687E096E00E9406
:101B1000790680916F06882309F475C087E0E7EEA7
:101B2000F5E0A9EDB5E001900D928A95E1F787E027
:101B3000EEEEF5E0A0EEB5E001900D928A95E1F7AA
:101B40000E9492056093F5057093F6058093F70562
:101B50009093F8051093D8051093D70585E196E08A
:101B60000E94620683E296E04CC087E096E00E9405
:101B7000790680916F06882321F187E0E7EEF5E092
:101B8000A9EDB5E001900D928A95E1F787E0EEEEC0
:101B9000F5E0A0EEB5E001900D928A95E1F70E9484
:101BA00092056093F5057093F6058093F705909381
:101BB000F805F092D805F092D70581E396E00E94EF
:101BC00062068091490690914A06A0914B06B09119
:101BD0004C068093450690934606A0934706B09323
:101BE00048060E94920560934106709342068093D6
:101BF000430690934406F0924006F0923F068DE42F
:101C000096E00E946206009172061091730601151B
:101C1000110509F443C1E0917206F091730666A1C3
:101C200077A1F80186A197A10E942819892B09F0B4
:101C300035C1B801C80140960E9431190E94920531
:101C4000F80160A371A382A393A375A274A202A555
:101C500013A5DDCF80917C0690917D06A0917E0634
:101C6000B0917F060196A11DB11D80937C069093D3
:101C70007D06A0937E06B0937F0610C190916D06FD
:101C8000911145C065E472E08DE596E00E94281947
:101C9000892B41F06BE472E08DE596E00E942819F3
:101CA000892B19F4F0926C0615C061E572E08DE5A0
:101CB00096E00E942819892B41F067E572E08DE5D6
:101CC00096E00E942819892B19F410926C0602C024
:101CD000E0926C0680917006909171069093730665
:101CE000809372060091720610917306011511051A
:101CF00009F4D4C06DE576E0F80186A197A10E94B1
:101D0000281997FFC5C0F80182A593A5E7CFE091F8
:101D10006C06E23009F491C080915D06882309F4D5
:101D20008CC020E2E29FF0011124E92B3197E932C7
:101D3000F10508F082C0EC5CFF4F0C9411178DE5A3
:101D400096E00E94180760930D0670930E0680932C
:101D50000F069093100671C091E0813409F043C0E2
:101D600043C067EE75E009C091E0833509F090E06B
:101D70009093ED0562C06EEE75E08DE596E00E94F1
:101D800090065BC091E0873509F090E09093F405F0
:101D900054C08DE596E00E94180760931F0670936B
:101DA0002006809321069093220647C08DE596E099
:101DB0000E94180760932D0670932E0680932F06BD
:101DC000909330063AC08DE596E00E9478126093B9
:101DD000FF057093000680930106909302062DC0C4
:101DE00091E081330CF490E090936F0626C08DE56E
:101DF00096E00E9478126093490670934A06809399
:101E00004B0690934C0619C08DE596E00E9418078A
:101E100060935706709358068093590690935A061C
:101E20000CC08DE596E00E94180760933B06709306
:101E30003C0680933D0690933E06009172061091F9
:101E400073060115110551F1E0917206F0917306C8
:101E500066A177A1F80186A197A10E942819892B74
:101E6000E9F4F80120A531A580916D0690E0821774
:101E70009307A4F02817390739F440E150E06DE5E5
:101E800076E0C8010E943819F80102A513A5D9CF40
:101E9000892B21F0109273061092720680916D06C4
:101EA0008F5F80936D0610926E0681E0FAE26F12EA
:101EB00080E080935C0681CD10926E0610926D06D4
:101EC00010925B06E0926C0610925C0610926F0610
:101ED00074CDEE3040F481E08E0F80936E06F0E01A
:101EE000E35AF94F608280915C06811166CD809142
:101EF0005B06682660925B0660CD62E370E080E07E
:101F000090E00E9458058091D805882309F44DCDB2
:101F10001092D80560ED77E080E090E00E945805CF
:101F200044CD1092D8056091E2057091E30580914F
:101F3000E4059091E5050E940D1528E23BE64EE68A
:101F40005EE40E9459164B015C016091E0057091BE
:101F5000E10580E090E00E940D159B01AC01C501F8
:101F6000B4010E94ED152091E605211190581BA2A5
:101F70001AA21DA21CA21FA21EA28E010F5F1F4F3C
:101F800026E048E00E945812BC01CE0182960E94D1
:101F900000041092D8056091DB057091DC058091FA
:101FA000DD059091DE050E940D1528E23BE64EE628
:101FB0005EE40E9459164B015C016091D905709155
:101FC000DA0580E090E00E940D159B01AC01C5018F
:101FD000B4010E94ED152091DF052111905819A63A
:101FE00018A61BA61AA61DA61CA68E010F5F1F4FC2
:101FF00026E048E00E945812BC01CE0188960E945B
:1020000000046DE572E0C8010E941C04BE01685D19
:102010007F4FC8010E947E088C0148E050E066E6D0
:1020200072E00E946503882309F493C0BE016E5DCF
:102030007F4FC8010E947E081FA61EA619AA18AAD3
:102040001BAA1AAA8C159D0559F0FC0160817181AB
:102050006115710529F044815581C6010E94DF0395
:10206000CE0101960E941704CE0188960E941704A3
:10207000CE0182960E941704B601CE01C4960E943A
:102080009303C6010E9417046FE672E088E295E0B0
:102090000E943104BE016C5C7F4F88E295E00E9493
:1020A0005A0460E083E00E94CF0462E370E080E0C5
:1020B00090E00E94580588AD99AD8197E0F069E7FE
:1020C00072E088E295E00E94310464E872E0CE019B
:1020D00001960E941C04BE016C5C7F4FCE010196EC
:1020E0000E947E08BC0188E295E00E945A04CE015D
:1020F00001960E941704CE01C4960E9417046CE258
:1021000071E080E090E00E9458050E9471076CE247
:1021100071E080E090E01AC060E083E00E94CF04AC
:102120000E94710788E295E00E948F01892B51F08F
:1021300088E295E00E946D01682F84E896E00E9495
:102140007E02F0CF62E370E080E090E00E945805EC
:1021500046CBC8010E94CD0369CF85EC95E00E9473
:1021600017048BEC95E00E94170481ED95E00E9426
:1021700017048CE191E0909385068093840680910A
:102180001204909113048458964071F4E0919706DC
:10219000F09198069081809199068095892380839B
:1021A0001092130410921204089510922B051092AD
:1021B0002A0588EE93E0A0E0B0E080932C05909390
:1021C0002D05A0932E05B0932F052AE031E0309322
:1021D00029052093280525EC30E030933505209320
:1021E000340524EC30E0309337052093360520EC9D
:1021F00030E0309339052093380521EC30E03093FE
:102200003B0520933A0522EC30E030933D052093C6
:102210003C0526EC30E030933F0520933E051092BC
:102220004105109242051092430510924405109208
:102230008706109286068093880690938906A0935D
:102240008A06B0938B068CE191E09093850680938B
:10225000840610929B0610929A0610929D06109288
:102260009C0610929F0610929E061092A106109254
:10227000A0066091A2066E7F6D7F6093A2066695B0
:10228000617081E068278BE00E94CF0461E08BE001
:102290000E941C05E5E0F2E0E491E0939406E1EF92
:1022A000F1E0E491F0E0EE0FFF1FE452FE4F859164
:1022B0009491909396068093950660E08AE00E9440
:1022C0001C058091A20681FD04C061E08AE00E94A5
:1022D000CF048AE080939006E4E0F2E0E491E0939A
:1022E0009106E0EFF1E0E491F0E0EE0FFF1FEE5217
:1022F000FE4F85919491909393068093920610924D
:10230000D7051092D8051092DA051092D9051092CF
:10231000DB051092DC051092DD051092DE051092AF
:10232000DF051092E1051092E0051092E20510928F
:10233000E3051092E4051092E5051092E60510926F
:10234000E8051092E7051092E9051092EA0510924F
:10235000EB051092EC051092ED051092EF0510922E
:10236000EE051092F0051092F1051092F205109210
:10237000F3051092F4051092F9051092FA051092E7
:10238000FB051092FC051092FD051092FE051092BF
:102390000706109208061092090610920A0610927B
:1023A0000B0610920C06109215061092160610924B
:1023B0001B0610921C0610921D0610921E0610920B
:1023C0002306109224061092290610922A061092D3
:1023D0002B0610922C0610923106109232061092A3
:1023E0003706109238061092390610923A0610926B
:1023F0003F06109240061092450610924606109233
:1024000047061092480610924D0610924E06109202
:1024100053061092540610925506109256061092CA
:102420005B0610925C0682E080936C0610926D064B
:1024300010926E0610926F0610927106109270063E
:10244000109273061092720610927406109275061E
:1024500010927606109277061092780610927906FE
:1024600010927A0610927B0610927C0610927D06DE
:1024700010927E0610927F061092800610928106BE
:10248000109282061092830610925D0665E072E05B
:1024900081ED95E00E941C046EE173E08BEC95E009
:1024A0000E941C046EE173E085EC95E00C941C0422
:1024B000EF920F931F93CF93DF93E80147FD02C084
:1024C00034E001C034E1042E000C550B57FF03C06B
:1024D000519541955109E32E022F242FAE010E9400
:1024E000DB12CE01DF91CF911F910F91EF900895F4
:1024F0001F93FC0199278827BC01E89411911032A1
:10250000E9F3193010F01E30C8F31B3251F01D32C0
:1025100049F4689406C00E94C612610F711D811DA6
:10252000911D119110531A30B0F33EF4909580959F
:10253000709561957F4F8F4F9F4F1F910895FA01BE
:10254000A191B081009719F41097E1F0CD01DC0161
:10255000CD010D90002011F4C00113C0FB012191A9
:10256000222319F02015D9F7F3CFFB012191201573
:1025700019F41E92119606C02223C1F70D90002077
:10258000A1F7D001FA01A193B0830895592F482FE4
:10259000372F262F660F771F881F991F660F771F0B
:1025A000881F991F620F731F841F951F660F771F67
:1025B000881F991F0895A9E0B0E0E1EEF2E10C94C4
:1025C000AC156A01122FB02E2BE3201720F0FF2448
:1025D000F394F00E02C02CE3F22E0F2D27E0AE0193
:1025E0004F5F5F4F0E943514BC014981842F897071
:1025F000813031F0E1FC06C0E0FE06C090E205C08B
:102600009DE203C09BE201C090E05E2D507143FF4C
:102610003CC0911102C083E001C084E0811718F42E
:10262000212F281B01C020E051110BC0F601822F81
:1026300030E2882319F031938150FBCFC20ED11CB8
:1026400020E0992329F0D6019C93F60131966F0181
:10265000C6010396E2FE0AC03EE4D6013C9341E483
:1026600011964C93119712963C9306C03EE6F601E4
:10267000308341E641833283FC01322F40E2332331
:1026800009F442C041933150FACF42FF44C0911146
:1026900002C083E001C084E0811718F4212F281BB9
:1026A00001C020E051110BC0F601822F30E28823D7
:1026B00019F031938150FBCFC20ED11C20E0992339
:1026C00029F0D6019C93F60131966F01C60103965D
:1026D000E2FE0BC039E4D6013C933EE411963C93F4
:1026E000119736E412963C9307C039E6F601308321
:1026F0003EE6318336E63283FC01322F40E233235B
:1027000019F041933150FBCFFC01E20FF11D108213
:102710008EEF9FEFA6C021E030E0911102C020E0D3
:1027200030E0161617061CF4FB01319602C0E1E0FA
:10273000F0E02E0F3F1FBB2021F0EB2DF0E0319693
:1027400002C0E0E0F0E02E0F3F1FE12FF0E02E1777
:102750003F071CF4121B212F01C020E08E2D887131
:1027600059F4F601822F30E2882319F03193815019
:10277000FBCFC20ED11C20E0992329F0D6019C93F7
:10278000F60131966F0151110BC0F601822F90E3D3
:10279000882319F091938150FBCFC20ED11C20E009
:1027A0000F2D060F9A81342F307144FF03C09133EF
:1027B00009F40150101624F4093018F008E001C0A3
:1027C00001E0AB0177FF02C040E050E0FB01E41BF9
:1027D000F50BA1E0B0E0AC0FBD1FEA0FFB1F8EE2CE
:1027E000A82E4B01801A91080B2D10E01195019530
:1027F00011094F3FBFEF5B0721F4D601AC92119650
:102800006D01641775072CF08416950614F4818108
:1028100001C080E3415051093196D60111967D01E6
:102820004017510724F0D6018C936701E2CF64175B
:10283000750739F4963320F4953319F4311101C03A
:1028400081E3F6018083F701822F90E2882319F05B
:1028500091938150FBCFF701E20FF11D108280E0D0
:1028600090E02996ECE00C94C815283008F027E099
:102870003327DA01990F311D87FD916000966105BC
:10288000710539F432602E5F3D9330E32A95E1F70C
:1028900008959F3F30F080387105610509F03C5F75
:1028A0003C5F3D93913008F08068911DDF93CF939A
:1028B0001F930F93FF92EF92192F987F9695E92F10
:1028C00096959695E90FFF27EC5EFE4F99273327E3
:1028D000EE24FF24A701E70105900894079428F44B
:1028E000360FE71EF81E491F511D660F771F881F00
:1028F000991F0694A1F70590079428F4E70EF81E97
:10290000491F561FC11D770F881F991F661F069408
:10291000A1F70590079428F4F80E491F561FC71F0A
:10292000D11D880F991F661F771F0694A1F7059088
:10293000079420F4490F561FC71FD81F990F661F11
:10294000771F881F0694A9F784911095177041F09E
:10295000D695C79557954795F794E7941A95C1F77B
:10296000EAEBF0E068941590159135916591959199
:1029700005907FE27395E118F10A430B560BC90BE2
:10298000D009C0F7E10CF11E431F561FC91FD01D0F
:102990007EF4703311F48A95E6CFE894015030F05C
:1029A000080F0AF40027021708F4202F2395022F9E
:1029B0007A3328F079E37D932A95E9F710C07D9367
:1029C0002A9589F6069497956795379517951794E4
:1029D000E118F10A430B560BC90BD00998F0239567
:1029E0007E9173957A3308F070E37C932013B8F7E7
:1029F0007E9170617D9330F0839571E37D9370E3F8
:102A00002A95E1F71124EF90FF900F911F91CF913C
:102A1000DF91992787FD90950895E89409C097FB69
:102A20003EF490958095709561957F4F8F4F9F4FA5
:102A30009923A9F0F92F96E9BB279395F6958795E9
:102A400077956795B795F111F8CFFAF4BB0F11F4AC
:102A500060FF1BC06F5F7F4F8F4F9F4F16C0882353
:102A600011F096E911C0772321F09EE8872F762F89
:102A700005C0662371F096E8862F70E060E02AF0CA
:102A80009A95660F771F881FDAF7880F96958795B6
:102A900097F9089597F99F6780E870E060E00895DE
:102AA0009FEF80EC089500240A9416161706180666
:102AB0000906089500240A94121613061406050642
:102AC0000895092E0394000C11F4882352F0BB0FD3
:102AD00040F4BF2B11F460FF04C06F5F7F4F8F4F36
:102AE0009F4F089557FD9058440F551F59F05F3F71
:102AF00071F04795880F97FB991F61F09F3F79F020
:102B000087950895121613061406551FF2CF4695A1
:102B1000F1DF08C0161617061806991FF1CF869523
:102B20007105610508940895E894BB276627772707
:102B3000CB0197F908950E94DD15A59F900DB49FD4
:102B4000900DA49F800D911D112408952F923F9206
:102B50004F925F926F927F928F929F92AF92BF92AD
:102B6000CF92DF92EF92FF920F931F93CF93DF9359
:102B7000CDB7DEB7CA1BDB0B0FB6F894DEBF0FBEB6
:102B8000CDBF09942A88398848885F846E847D8403
:102B90008C849B84AA84B984C884DF80EE80FD8005
:102BA0000C811B81AA81B981CE0FD11D0FB6F8947B
:102BB000DEBF0FBECDBFED010895A29FB001B39F50
:102BC000C001A39F700D811D1124911DB29F700D36
:102BD000811D1124911D08955058BB27AA270E94DA
:102BE00004160C9461150E94531538F00E945A1572
:102BF00020F039F49F3F19F426F40C9450150EF48C
:102C0000E095E7FB0C944A15E92F0E94721558F3E2
:102C1000BA17620773078407950720F079F4A6F5C1
:102C20000C9494150EF4E0950B2EBA2FA02D0B01E9
:102C3000B90190010C01CA01A0011124FF27591B01
:102C400099F0593F50F4503E68F11A16F040A22F07
:102C5000232F342F4427585FF3CF46953795279578
:102C6000A795F0405395C9F77EF41F16BA0B620B77
:102C7000730B840BBAF09150A1F0FF0FBB1F661FBE
:102C8000771F881FC2F70EC0BA0F621F731F841F01
:102C900048F4879577956795B795F7959E3F08F027
:102CA000B0CF9395880F08F09927EE0F97958795E9
:102CB00008950E946D160C9461150E945A1558F0E3
:102CC0000E94531540F029F45F3F29F00C944A15F7
:102CD00051110C9495150C9450150E94721568F3BF
:102CE0009923B1F3552391F3951B550BBB27AA27C5
:102CF00062177307840738F09F5F5F4F220F331FFF
:102D0000441FAA1FA9F335D00E2E3AF0E0E832D0C6
:102D100091505040E695001CCAF72BD0FE2F29D0C9
:102D2000660F771F881FBB1F261737074807AB079B
:102D3000B0E809F0BB0B802DBF01FF2793585F4F10
:102D40003AF09E3F510578F00C944A150C94951575
:102D50005F3FE4F3983ED4F3869577956795B795F2
:102D6000F7959F5FC9F7880F911D9695879597F9FD
:102D70000895E1E0660F771F881FBB1F6217730776
:102D80008407BA0720F0621B730B840BBA0BEE1F8B
:102D900088F7E0950895DB018F939F930E949B1520
:102DA000BF91AF91A29F800D911DA39F900DB29FE7
:102DB000900D1124089597FB072E16F4009407D068
:102DC00077FD09D00E941F1707FC05D03EF49095AF
:102DD00081959F4F0895709561957F4F0895A1E269
:102DE0001A2EAA1BBB1BFD010DC0AA1FBB1FEE1F85
:102DF000FF1FA217B307E407F50720F0A21BB30BD0
:102E0000E40BF50B661F771F881F991F1A9469F74B
:102E100060957095809590959B01AC01BD01CF01A7
:102E20000895EE0FFF1F0590F491E02D0994B7FF70
:102E30000C949B150E949B15821B930B0895AA1B53
:102E4000BB1B51E107C0AA1FBB1FA617B70710F095
:102E5000A61BB70B881F991F5A95A9F780959095C7
:102E6000BC01CD0108950F931F93CF93DF93823060
:102E7000910510F482E090E0E091A506F091A6069D
:102E800020E030E0A0E0B0E0309719F140815181BE
:102E90000281138148175907C8F08417950769F410
:102EA000109731F012960C93129713961C9327C02B
:102EB0000093A5061093A60622C02115310519F02E
:102EC0004217530718F49A01BD01EF01DF01F80121
:102ED000DBCF21153105F9F0281B390B24303105E2
:102EE00080F48A819B816115710521F0FB01938338
:102EF000828304C09093A6068093A506FE013296B5
:102F000044C0FE01E20FF31F8193919322503109D7
:102F1000398328833AC02091A3063091A406232B3D
:102F200041F420910201309103013093A4062093D3
:102F3000A30620910001309101012115310541F4D2
:102F40002DB73EB74091040150910501241B350B6C
:102F5000E091A306F091A406E217F307A0F42E1B5C
:102F60003F0B2817390778F0AC014E5F5F4F2417ED
:102F7000350748F04E0F5F1F5093A4064093A306F9
:102F80008193919302C0E0E0F0E0CF01DF91CF9117
:102F90001F910F910895CF93DF93009709F481C09B
:102FA000FC01329713821282A091A506B091A60669
:102FB000109781F420813181820F931F2091A30605
:102FC0003091A4062817390751F5F093A406E09331
:102FD000A30667C0ED0120E030E0CE17DF0740F424
:102FE0004A815B819E0141155105F1F0EA01F5CF5F
:102FF000D383C28340815181840F951FC817D9079D
:1030000059F488819981840F951F0296918380835A
:103010008A819B81938382832115310529F4F09362
:10302000A606E093A5063DC0E901FB83EA8349912A
:103030005991C40FD51FEC17FD0761F48081918170
:10304000840F951F0296E901998388838281938179
:103050009B838A83E0E0F0E012968D919C91139718
:10306000009719F0FD01DC01F7CF8D919C9111972C
:103070009D012E5F3F4F820F931F2091A306309139
:10308000A4062817390769F4309729F41092A60688
:103090001092A50602C013821282B093A406A093D8
:1030A000A306DF91CF910895A0E0B0E0EAE5F8E152
:1030B0000C94AA15EC01009721F4CB010E94331760
:1030C000B4C0FC01E60FF71F9C0122503109E21742
:1030D000F30708F4A8C0D9010D911C9111970617A8
:1030E0001707B0F00530110508F49BC0C80104971C
:1030F0008617970708F495C002501109061B170B95
:10310000019311936D937C93CF010E94CB1789C0DB
:103110005B01A01AB10A4C01800E911EA091A50678
:10312000B091A606612C712CE12CF12C109709F4BA
:1031300046C08D919C911197A815B905B1F56C0108
:1031400042E0C40ED11CCA14DB0478F14C018A1889
:103150009B08640142E0C40ED11C1296BC901297E9
:103160001396AC91B5E0CB16D10440F0B282A383A4
:1031700091828082D9016D937C9309C00E5F1F4FAD
:10318000800F911FF90191838083EB2DFA2FE114B9
:10319000F10431F0D7011396FC93EE93129741C0DE
:1031A000F093A606E093A5063CC06816790608F4DD
:1031B0003C017D0112960D90BC91A02DB7CF80915E
:1031C000A3069091A40688169906E1F46616770680
:1031D000C8F48091000190910101009741F48DB7EE
:1031E0009EB74091040150910501841B950BE8178F
:1031F000F907C8F4F093A406E093A306F9017183DC
:1032000060830FC0CB010E9433177C01009759F0F7
:10321000A801BE010E941F19CE010E94CB17C70151
:1032200004C0CE0102C080E090E0CDB7DEB7EEE092
:103230000C94C61581E090E0F8940C946119FB01A0
:10324000DC0102C001900D9241505040D8F7089522
:10325000FB01DC018D91019080190110D9F3990BCC
:103260000895FB01DC0101900D920020E1F7089523
:10327000FB01DC014150504048F001900D920020CC
:10328000C9F701C01D9241505040E0F70895FB017D
:1032900051915523A9F0BF01DC014D914517411112
:1032A000E1F759F4CD010190002049F04D9140150E
:1032B0004111C9F3FB014111EFCF81E090E001978B
:1032C000089511E0C8E0D1E004C0FE010E9411178A
:0C32D0002196C930D107C9F7F894FFCF50
:1032DC000000A706800000000000C70134015E0159
:1032EC0014028F016D018101000000007E02340187
:1032FC0007037D02CE02E60265022D2D2D2D2D2D0C
:10330C002D2D2D2D2D2D2D2D2D2D2D2D2D2D2D2DE1
:10331C002D2D494E4943494F2D2D2D2D2D2D2D2D24
:10332C002D2D2D2D2D2D2D2D2D2D2D2D2D2D2D2DC1
:10333C00005057525F4B4559204163746976616464
:10334C006F004154002D2D2D2D4E6F20636F6E6537
:10335C00637461646F20636F6E206D6F64756C6F46
:10336C002041372D2D2D2D002D2D2D2D436F6E65CC
:10337C00637461646F20636F6E206D6F64756C6F26
:10338C002041372D2D2D2D002D2D2D2D2D2D2D4664
:10339C00554E43494F4E414E444F2D2D2D2D2D2D25
:1033AC002D004E756D65726F2054656C65666F6E81
:1033BC0069636F20477561726461646F3A200063C2
:1033CC006F6E6669726D61725F434950535441521E
:1033DC00543A000D0A0041542B4750533D310041E3
:1033EC00542B4750533D30002D2D2D2D475053203D
:1033FC00444553414354495641444F2D2D2D2D00E6
:10340C00416374697661646F205443505F47505236
:10341C0053212121004750524D4300474E524D43FA
:10342C0000475047474100474E47474100266669D1
:10343C00656C64313D00266669656C64323D0050F4
:10344C006F736963696F6E3A006461746F7347459B
:10345C0054323A004745542068747470733A2F2FD5
:10346C006170692E7468696E67737065616B2E6329
:10347C006F6D2F7570646174653F6170695F6B650A
:10348C00793D32434E4F58454756445133583335A6
:10349C004B37002D2D2D2D2D2D2D2D2D4441544FE1
:1034AC005320454E43454E4449444F2D2D2D2D2D33
:1034BC002D2D2D2D0041542B435245473F00415497
:1034CC002B43474154543D310041542B4347444313
:1034DC004F4E543D312C224950222C22434D4E4507
:1034EC0054220041542B43474143543D312C31006D
:1034FC0041542B43495053544152543D5443502C46
:10350C006170692E7468696E67737065616B2E6388
:10351C006F6D2C38300053696E206163746976616D
:10352C0072205443505F47505253002D2D2D2D2D9A
:10353C002D2D2D2D4441544F532041504147415284
:10354C002D2D2D2D2D2D2D2D2D0041542B4349503E
:10355C00434C4F53450041542B4349505348555409
:10356C00002D2D2D2D2D2D436F6E6578696F6E20DE
:10357C00636572726164612D2D2D2D2D2D2D2D2DD8
:10358C0000635F733A002052494E4700636F6E74BC
:10359C00656F52696E673A200041542B434C43438C
:1035AC0000415448002B434C43433A20312C312CDE
:1035BC00342C302C302C004E756D65726F206E6F74
:1035CC0020677561726461646F004E756D54656C33
:1035DC0065665F526563696269646F3A004F4B00C0
:107800000C94343C0C94513C0C94513C0C94513CE1
:107810000C94513C0C94513C0C94513C0C94513CB4
:107820000C94513C0C94513C0C94513C0C94513CA4
:107830000C94513C0C94513C0C94513C0C94513C94
:107840000C94513C0C94513C0C94513C0C94513C84
:107850000C94513C0C94513C0C94513C0C94513C74
:107860000C94513C0C94513C11241FBECFEFD8E036
:10787000DEBFCDBF11E0A0E0B1E0ECE9FFE702C060
:1078800005900D92A230B107D9F712E0A2E0B1E065
:1078900001C01D92AD30B107E1F70E942D3D0C945F
:1078A000CC3F0C94003C982F959595959595959582
:1078B000905D8F708A307CF0282F295A8091C0000B
:1078C00085FFFCCF9093C6008091C00085FFFCCF60
:1078D0002093C6000895282F205DF0CF982F809127
:1078E000C00085FFFCCF9093C6000895EF92FF92F1
:1078F0000F931F93EE24FF2487018091C00087FD22
:1079000017C00894E11CF11C011D111D81E4E8164B
:1079100082E4F8068FE0080780E0180770F3E09132
:107920000401F091050109958091C00087FFE9CF1E
:107930008091C6001F910F91FF90EF9008950E94D3
:10794000763C982F8091C00085FFFCCF9093C600B5
:1079500091362CF490330CF09053892F089597555D
:10796000892F08951F930E949F3C182F0E949F3CCF
:107970001295107F810F1F9108951F93182F882350
:1079800021F00E94763C1150E1F71F9108951F935A
:10799000182F0E94763C803249F0809103018F5F5E
:1079A000809303018530C1F01F9108958091C0003C
:1079B00085FFFCCF84E18093C6008091C00085FFE5
:1079C000FCCF1093C6008091C00085FFFCCF80E102
:1079D0008093C6001F910895E0910401F091050184
:1079E00009951F9108950E94763C803241F0809164
:1079F00003018F5F80930301853081F008958091AA
:107A0000C00085FFFCCF84E18093C6008091C00058
:107A100085FFFCCF80E18093C6000895E0910401CA
:107A2000F09105010995089540E951E08823A1F0FE
:107A30002D9A28EE33E0FA013197F1F721503040CA
:107A4000D1F72D9828EE33E0FA013197F1F7215064
:107A50003040D1F7815061F708953F924F925F9285
:107A60006F927F928F929F92AF92BF92CF92DF924E
:107A7000EF92FF920F931F93CF93DF93000080E16B
:107A80008093C4001092C50088E18093C10086E015
:107A90008093C2005098589A259A81E00E94143D24
:107AA00024E1F22E9EE1E92E85E9D82E0FE0C02ECA
:107AB00010E1B12EAA24A394B1E49B2EA6E58A2E50
:107AC000F2E57F2EE0E26E2E79E4572E63E5462E36
:107AD00050E5352E0E94763C8033B1F18133B9F107
:107AE000803409F46FC0813409F476C0823409F41B
:107AF00085C0853409F488C0803531F1823521F1A3
:107B0000813511F1853509F485C0863509F48DC0BC
:107B1000843609F496C0843709F403C1853709F423
:107B200072C1863709F466C0809103018F5F80932C
:107B30000301853079F6E0910401F0910501099582
:107B40000E94763C803351F60E94F33CC3CF0E94E2
:107B5000763C803249F78091C00085FFFCCFF092DF
:107B6000C6008091C00085FFFCCF9092C600809136
:107B7000C00085FFFCCF8092C6008091C00085FFC9
:107B8000FCCF7092C6008091C00085FFFCCF609250
:107B9000C6008091C00085FFFCCF5092C600809146
:107BA000C00085FFFCCF4092C6008091C00085FFD9
:107BB000FCCF3092C6008091C00085FFFCCFB09210
:107BC000C60088CF0E94763C863808F4BDCF0E945C
:107BD000763C0E94F33C7ECF0E94763C803809F4CC
:107BE0009CC0813809F40BC1823809F43CC1883942
:107BF00009F48FC080E00E94C73C6CCF84E10E94F2
:107C0000BD3C0E94F33C66CF85E00E94BD3C0E94D3
:107C1000F33C60CF0E94763C809306010E94763C44
:107C2000809307010E94F33C55CF0E94763C80333D
:107C300009F41DC183E00E94BD3C80E00E94C73C66
:107C400049CF0E94763C809309020E94763C809343
:107C5000080280910C028E7F80930C020E94763C79
:107C6000853409F415C18091080290910902892B8D
:107C700089F000E010E00E94763CF801E85FFE4FDA
:107C800080830F5F1F4F80910802909109020817AF
:107C9000190788F30E94763C803209F045CF809125
:107CA0000C0280FF01C16091060170910701660F0F
:107CB000771F7093070160930601A0910802B091AD
:107CC00009021097C9F0E8E0F1E09B01AD014E0F09
:107CD0005F1FF999FECF32BD21BD819180BDFA9A17
:107CE000F99A2F5F3F4FE417F50799F76A0F7B1F4B
:107CF00070930701609306018091C00085FFFCCF5F
:107D0000F092C6008091C00085FFFCCFB092C60003
:107D1000E1CE83E00E94C73CDDCE82E00E94C73CFA
:107D2000D9CE0E94763C809309020E94763C8093D3
:107D300008028091060190910701880F991F909386
:107D40000701809306010E94763C853409F4A6C0A1
:107D500080910C028E7F80930C020E94763C8032D0
:107D600009F0B8CE8091C00085FFFCCFF092C6002C
:107D7000609108027091090261157105B9F140E046
:107D800050E080910C02A82FA170B82FB27011C0E2
:107D9000BB2309F45CC0E0910601F0910701319624
:107DA000F0930701E09306014F5F5F4F46175707B7
:107DB000E8F4AA2369F3F999FECF209106013091E6
:107DC000070132BD21BDF89A90B58091C00085FFB2
:107DD000FCCF9093C6002F5F3F4F30930701209355
:107DE00006014F5F5F4F4617570718F38091C00099
:107DF00085FDE5CE8091C00085FFF8CFE0CE81E023
:107E00000E94C73C67CE0E94763C803209F08CCE3F
:107E10008091C00085FFFCCFF092C6008091C00029
:107E200085FFFCCFE092C6008091C00085FFFCCFAB
:107E3000D092C6008091C00085FFFCCFC092C600E2
:107E40008091C00085FFFCCFB092C60043CEE09188
:107E50000601F091070194918091C00085FFFCCF4D
:107E60009093C6009CCF80E10E94C73C33CE0E9415
:107E7000763C0E94763C182F0E94763C112309F430
:107E800083C0113009F484C08FE00E94C73C22CE29
:107E900080910C02816080930C02E5CE80910C02EF
:107EA000816080930C0259CF809107018823880F4D
:107EB000880B8A2180930B02809106019091070123
:107EC000880F991F90930701809306018091080203
:107ED00080FF09C080910802909109020196909359
:107EE000090280930802F894F999FECF1127E091D6
:107EF0000601F0910701C8E0D1E08091080290915D
:107F00000902103091F40091570001700130D9F34B
:107F100003E000935700E89500915700017001308D
:107F2000D9F301E100935700E89509901990009169
:107F3000570001700130D9F301E000935700E89534
:107F40001395103498F011270091570001700130FB
:107F5000D9F305E000935700E895009157000170B0
:107F60000130D9F301E100935700E895329602976A
:107F700009F0C7CF103011F00296E5CF112480919F
:107F8000C00085FFB9CEBCCE8EE10E94C73CA2CD19
:0C7F900085E90E94C73C9ECDF894FFCF0D
:027F9C00800063
:040000030000780081
:00000001FF
